:020000040800F2
:100000009005002001010008550D0008C70A0008EE
:10001000510D00081D0300086D22000800000000BB
:100020000000000000000000000000005D1C00084F
:100030002D070008000000001F0E0008190100082D
:100040001B0100081B0100081B0100081B01000820
:100050001B0100081B0100081B0100081B01000810
:100060001B0100081B0100081B0100081B01000800
:100070001B0100081B0100081B0100081B010008F0
:100080001B0100081B0100081B0100081B010008E0
:100090001B0100081B0100081B0100081B010008D0
:1000A0001B0100081B0100081B0100081B010008C0
:1000B0001B0100081B0100081B0100081B010008B0
:1000C0001B0100081B0100081B0100081B010008A0
:1000D0001B0100081B010008391F00081B01000854
:1000E0001B0100081B0100081B010008DFF80CD0F1
:1000F00000F036F800480047D5240008900500209D
:100100000648804706480047FEE7FEE7FEE7FEE7B1
:10011000FEE7FEE7FEE7FEE7FEE7FEE7191E000842
:10012000ED000008421C10F8011B0029FBD1801AC9
:10013000704730B50B46014600202022012409E01B
:1001400021FA02F59D4205D303FA02F5491B04FA90
:1001500002F52844151EA2F10102F1DC30BD0000B9
:10016000064C074D06E0E06840F0010394E8070004
:1001700098471034AC42F6D3FFF7BCFFAC2A000816
:10018000CC2A000810B500F053FB0C4801680C485D
:1001900000F018FB094841680948001D00F012FBF7
:1001A00001F05EFD06480068064908600448001D2D
:1001B0000068486004A002F05BF810BD0000002059
:1001C0000CFC00084C0000200A0D243E3A5F5379D5
:1001D0007374656D2050617373776F726420626110
:1001E000636B75703A2025730000000010B500F0B5
:1001F0001FFB11480168114800F0E4FA0E484168FD
:100200000E48001D00F0DEFA0B4881680B480830EC
:1002100000F0D8FA01F024FD084800680849086099
:100220000648001D0068486004480830006888607F
:1002300004A002F01DF810BD0600002000FC00081C
:100240004C0000200A0D243E3A5F50686F6E652016
:100250006261636B75703A202573000010B500F081
:10026000E7FA01F0FDFC0E4800780E4908700E48D0
:1002700000784870084601680C4800F0A3FA01F0C5
:10028000EFFC0A480068074908600846017808A0A2
:1002900001F0EEFF034841780EA001F0E9FF10BD28
:1002A000130000204C0000201400002014FC000863
:1002B0000A0D243E3A5F54656D7065726174757203
:1002C000652076616C7565206261636B75703A209C
:1002D000257500000A0D243E3A5F48756D69646912
:1002E00074792076616C7565206261636B7570202E
:1002F0002020203A2025750010B500F099FA064814
:1003000000F016FAFFF73EFFFFF770FFFFF7A6FFBA
:1003100000F04EFA10BD000000FC000800BFFEE730
:1003200010B50FA000F0A6F80E490F4802F082F9B0
:10033000002814DB012000F0A3FF40B100210120C0
:1003400000F0BAFF09A1074801F080F907E0012198
:10035000084600F0B1FF0AA1024801F077F910BD8C
:100360004154480006000020C6000020546869651A
:10037000742062692031206461207461740000007F
:10038000546869657420626920312064612062616B
:100390007400000070B506460024002500BF03E08D
:1003A000002112480155641C0D2CF9DB10A11348E3
:1003B00002F06FF90546002D15DB30200B49491E70
:1003C0004870012409E00D48415D08480155641C4E
:1003D0006D1C0D2C01DD012070BD0848405D2228F8
:1003E000F1D10020F8E70120F6E70000B10000207D
:1003F000434D543A20222B3834000000C600002020
:1004000008B50121042000F029FE0120ADF800000C
:1004100010208DF8030003208DF80200694604487F
:1004200000F062FA0121024800F046FB08BD00001E
:100430000008014008B50120ADF8000048208DF803
:1004400003006946014800F04FFA08BD000801406A
:1004500008B50120ADF8000010208DF8030003203E
:100460008DF802006946024800F03EFA08BD00001F
:100470000008014070B5054601266424284600F0B6
:100480003FF90D21164801F082FE00BF40211448BB
:1004900001F0AFFD0028F9D017E012A1124802F0D8
:1004A000C9F8002801DB002610E010A10E4802F078
:1004B000F0F8002801DB012608E00A2001F0EDFF3A
:1004C000601E84B20CB9002070BDE6E700BF962024
:1004D00001F0E3FF0EB90120F6E70020F4E7000089
:1004E000004400404F4B0000C60000204552524FD0
:1004F0005200000010B5002408E006A0FFF7BAFF84
:1005000010B9601CC4B201E0012010BD052CF4DB61
:100510000020FAE741540000C8200021064A11706B
:10052000064A1180002003E00021054A1154401CB6
:10053000C828F9DB70470000400000203E00002082
:10054000C600002070B53C240025FFF7E5FF00BF82
:10055000FFF7E2FF1CA0FFF78DFF4FF47A7001F068
:100560009CFF1CA11D4802F094F845B2601E84B2A5
:100570000CB9002070BD002DEADB19A117480C3022
:1005800002F087F8002801DB0220F3E718A11348E6
:100590000C3002F07EF8002801DB0320EAE717A107
:1005A0000E480C3002F075F8002801DB0120E1E76D
:1005B00016A10A480C3002F06CF8002801DB052077
:1005C000D8E70020D6E7000041542B434F50533F5B
:1005D000000000003A20302C302C0000C600002023
:1005E000564E4D20616E64205649455454454C008A
:1005F0004D6F6269666F6E6500000000564E2056B2
:10060000494E4150484F4E45000000004265656C20
:10061000696E6520564E000008B50121042000F0E7
:100620001DFD4FF40040ADF8000003208DF80200DE
:1006300010208DF803006946014800F055F908BD07
:100640000008014000B587B00121042000F006FD3C
:100650000121480400F0F2FC0420ADF8180003204A
:100660008DF81A0018208DF81B0006A9224800F00A
:100670003BF90820ADF8180003208DF81A0004207B
:100680008DF81B0006A91C4800F02EF94FF41650F7
:1006900002900C20ADF812000020ADF81000ADF86B
:1006A0000E00ADF80C00ADF8140002A9134801F0DB
:1006B000FDFC012240F22551104801F0D1FC4021FF
:1006C0000E4801F081FC01210C4801F086FC4FF43A
:1006D000A06000F079FB26208DF8040002208DF840
:1006E00005008DF8060001208DF8070001A800F034
:1006F00033FB07B000BD000000080140004400408B
:1007000010B504460BE02178074801F040FD00BF1A
:100710004021054801F06DFC0028F9D0641C2078C8
:100720000028F0D110BD00000044004070470000D8
:1007300030B5044604254FF4302000F085F8054616
:10074000042D17D10C48006940F002000A490861E5
:1007500008464461006940F0400008614FF43020D1
:1007600000F072F805460448006941F6FD71084042
:1007700001490861284630BD0020024004200B4991
:10078000C96801F0010109B101200EE00749C968FB
:1007900001F0040109B1022007E00449C96801F031
:1007A000100109B1032000E004207047002002403E
:1007B0000348006940F0800001490861704700006B
:1007C0000020024078B506460C4604250020009023
:1007D000E80200F039F80546042D24D113480069D9
:1007E00040F00100114908613480E80200F02CF863
:1007F0000546042D10D1B01C0090200C00990880F3
:10080000E80200F021F805460848006941F6FE714B
:1008100008400649086106E00448006941F6FE7197
:10082000084002490861284678BD000000200240C7
:100830000248034948600348486070472301674500
:1008400000200240AB89EFCD00B502460423FFF73C
:1008500095FF034603E0FFF791FF0346521E012B6D
:1008600001D1002AF7D102B90523184600BD0000C6
:1008700008B501211C2000F0F1FB10208DF80300C9
:100880004FF44050ADF8000003208DF80200694697
:10089000134800F029F800224FF48051104800F06E
:1008A0000DF900224FF400510D4800F007F94820DF
:1008B0008DF803000320ADF800008DF802006946B2
:1008C000074800F011F804208DF803000320ADF86C
:1008D00000008DF802006946024800F005F808BDE6
:1008E000000C0140000801402DE9F04102460025BE
:1008F0000026002000230024002791F803C00CF0FC
:100900000F0591F803C00CF0100CBCF1000F03D0E0
:1009100091F802C04CEA050591F800C0BCF1000F47
:1009200031D0146800202BE04FF0010C0CFA00F3DA
:10093000B1F800C00CEA03069E4220D183004FF0BC
:100940000F0C0CFA03F7BC4305FA03FC4CEA040451
:1009500091F803C0BCF1280F06D14FF0010C0CFA3E
:1009600000FCC2F814C00AE091F803C0BCF1480FC3
:1009700005D14FF0010C0CFA00FCC2F810C0401C6D
:100980000828D1D31460B1F800C0BCF1FF0F34DDEA
:10099000546800202EE000F1080C4FF0010808FA1E
:1009A0000CF3B1F800C00CEA03069E4221D183008B
:1009B0004FF00F0C0CFA03F7BC4305FA03FC4CEAAA
:1009C000040491F803C0BCF1280F05D100F1080C14
:1009D00008FA0CF8C2F8148091F803C0BCF1480F73
:1009E00007D100F1080C4FF0010808FA0CF8C2F822
:1009F0001080401C0828CED35460BDE8F081000070
:100A0000F0B50A46002300240021002500F000462E
:100A1000B6F1004F02D11D4EF16901E01B4E716825
:100A2000C0F3034583B200F44016B6F5401F08D169
:100A300021F07061154E766826F07066134F7E6067
:100A400012E000F48016B6F5801F06D1032606FAE0
:100A500005F4A14341F0706106E0460D360103FA4A
:100A600006F6B14341F0706122B1460D360103FA3A
:100A700006F6314300F00046B6F1004F02D1034EB6
:100A8000F16101E0014E7160F0BD00000000014025
:100A90000246002093680B400BB1012000E00020CB
:100AA000704702460020D3680B400BB1012000E0E4
:100AB0000020704741617047016170470AB10161D0
:100AC00000E04161704700BFFEE7F8B506460C46FE
:100AD00015461DB904208DF8030002E010208DF8A2
:100AE0000300ADF8004003208DF80200694630464F
:100AF000FFF7FAFEF8BD000010B500F0F3F8002291
:100B000080210648FFF7DAFF00224FF48071034886
:100B1000FFF7D4FF012001F037FE10BD000C0140AB
:100B200010B5044600F0DEF8002280210648FFF7E9
:100B3000C5FF00224FF480710348FFF7BFFF204636
:100B400001F022FE10BD0000000C014000BF4FF478
:100B5000FA5200FB02F100BF0A00A1F10101FBD132
:100B6000704770B505460E4636B1012E06D0022EEE
:100B700006D0032E08D105E0002407E0402405E05C
:100B8000142403E0542401E0002400BF00BF6019D6
:100B9000C4B244F08000FFF7C3FF00F0A3F870BDBB
:100BA00010B50121082000F059FA0121082000F0B9
:100BB00055FA0121082000F051FA0121082000F027
:100BC0004DFA0121082000F049FA0121102000F01F
:100BD00045FA0121102000F041FA012280212C4821
:100BE000FFF773FF012211022948FFF76EFF012270
:100BF00051022748FFF769FF012240212448FFF7EF
:100C000064FF012220212248FFF75FFF012210210B
:100C10001F48FFF75AFF012208211D48FFF755FF23
:100C200000224FF400711A48FFF748FF002280218C
:100C30001748FFF743FF00224FF480711448FFF775
:100C40003DFF6420FFF782FF3020FFF769FF30206F
:100C5000FFF766FF3020FFF763FF3220FFF760FFEA
:100C60006420FFF773FF2020FFF75AFF2820FFF7CB
:100C700057FF0C20FFF754FF0620FFF751FF01201C
:100C8000FFF74EFF4FF47A70FFF760FF10BD0000D2
:100C9000000C014010B5044600F024F80122802128
:100CA0000948FFF70BFF00224FF480710648FFF759
:100CB00005FF00224FF400710348FFF7FFFE2046B6
:100CC00001F062FD10BD0000000C014010B50446AB
:100CD00000BF2078FFF7DEFF641C20780028F8D1E1
:100CE00010BD000010B5002240211848FFF7EDFEAE
:100CF000012211021548FFF7E1FE0022802113486E
:100D0000FFF7DCFE00BF012251021048FFF7D6FEBC
:100D100040210E48FFF7BCFE044600224FF400714C
:100D20000A48FFF7CBFE012251020848FFF7C6FE32
:100D300000224FF400710548FFF7C0FE002CE2D1FD
:100D4000012240210148FFF7C0FE10BD000C014008
:100D500000BFFEE77047000070B5002100230F229E
:100D6000C47804B3154C246804F4E064C4F5E0646A
:100D7000210AC1F10403CA40447804FA03F18478DB
:100D80001440214309010E4C0678A155047804F063
:100D90001F050124AC4005786D11AD0005F1E0257B
:100DA000C5F8004109E0047804F01F050124AC40B7
:100DB000044D0678761145F8264070BD0CED00E034
:100DC00000E400E080E100E002490143024A1160D2
:100DD000704700000000FA050CED00E038B504464D
:100DE0000220ADF8000003208DF80200012C03D191
:100DF00004208DF8030002E010208DF803006946FE
:100E00000148FFF771FD38BD0008014010B5012110
:100E1000042000F023F90020FFF7E0FF10BD704729
:100E200008B5674800F0D0F901281CD16448C078A3
:100E30000090634883784278017862A001F018FA44
:100E40005F4880786E49096808446D4908605C48CD
:100E500000786C49096808446A4908606A48007863
:100E6000401C694908706848007864287EDB644843
:100E700000686421B0FBF1F06449087561480068BE
:100E80006421B0FBF1F06149487500205E490870AB
:100E90005B4908605B4908605C48017D5C480078FC
:100EA000801C814227DB5B484078012823D0012148
:100EB000084600F001FA0121022000F0FDF900F0DF
:100EC000CFFE53480078801C00905048437D027D3F
:100ED0005149524801F0DCF951480078012803D10A
:100EE0004E49504800F0B2FB4C494FA001F0C0F908
:100EF0000120484948704548007D454909788842A5
:100F00002DDB4248017D42480078801C814226DA70
:100F100040484078022822D00121084600F0CCF950
:100F20000021022000F0C8F900F09AFE384800784D
:100F300000903648437D027D3E49384801F0A8F9CB
:100F400037480078012803D13449364800F07EFB49
:100F5000324935A001F08CF902202E4948702B4807
:100F6000007D2B490978884228DA00E026E02948EC
:100F70004078032822D00021012000F09DF90021B3
:100F8000022000F099F900F06BFE214800780090F3
:100F90001E48437D027D2849204801F079F9204808
:100FA0000078012803D11D491E4800F04FFB1B4962
:100FB0001DA001F05DF903201649487008BD00002E
:100FC000180000200D243E3A5F5468652068756D56
:100FD00069646974792069733A25642E2564205206
:100FE00048202C5468652074656D70657261747555
:100FF00072652069733A2025642E256420304300F1
:10100000200000202400002028000020B000002044
:101010001300002016000020A02900084C0000202A
:1010200015000020060000200A0D243E3A5F2573BB
:101030000A0D000038290008002A000829B1064AD4
:10104000D2690243044BDA6104E0034AD269824365
:10105000014BDA61704700000010024029B1064AD6
:1010600092690243044B9A6104E0034A9269824305
:10107000014B9A61704700000010024030B500211A
:101080000022002400232D4D6D6805F00C0121B1D4
:10109000042905D0082923D105E0294D056022E067
:1010A000274D05601FE0254D6D6805F47012234D36
:1010B0006D6805F48034022505EB92421CB9214D80
:1010C000554305600BE01D4D6D6805F400351DB1FD
:1010D0001C4D5543056002E0194D5543056002E083
:1010E000174D056000BF00BF144D6D6805F0F0019D
:1010F0000909154D6B5C0568DD4045600F4D6D6855
:1011000005F4E061090A104D6B5C4568DD408560BF
:101110000A4D6D6805F46051C90A0B4D6B5C45685A
:10112000DD40C560054D6D6805F44041890B074DF4
:101130006B5CC568B5FBF3F5056130BD001002407E
:1011400000127A0000093D0029000020390000202B
:1011500070B50026002430E042F2107503E06D1EE9
:101160000DB9002070BD01211648FFF791FC002841
:10117000F5D03C2000F032FE01211248FFF788FC38
:10118000012813D142F2107503E06D1E0DB9002045
:10119000E8E701210B48FFF77BFC0128F5D0C4F1FB
:1011A000070101208840C0B2064304E0C4F10701F2
:1011B000012088408643601CC4B2082CCCDB30463A
:1011C000D0E700000008014070B50446FFF740F981
:1011D00001212A48FFF76EFC122000F0E1FD0121F9
:1011E0002648FFF769FC1E2000F0F8FDFFF722F902
:1011F00001212248FFF74CFC00283CD142F2107537
:1012000003E06D1E0DB9002070BD01211B48FFF7E2
:101210003FFC0028F5D042F2107503E06D1E0DB9B9
:101220000020F1E701211548FFF732FC0128F5D035
:10123000FFF78EFF2070FFF78BFF6070FFF788FFCE
:10124000A070FFF785FFE070FFF782FF2071FFF7C6
:10125000FFF801210948FFF72FFC20786178084446
:10126000A1780844E17808442179884201D101201D
:10127000CAE70020C8E70020C6E7000000080140D8
:1012800070B504460025012C02D0022C0ED106E0D8
:101290004FF480510748FFF704FC054606E04FF481
:1012A00000510448FFF7FDFB054600BF00BF28467C
:1012B00070BD0000000C014070B505460C46012DC4
:1012C00002D0022D0ED106E022464FF4805106488E
:1012D000FFF7F4FB06E022464FF400510248FFF707
:1012E000EDFB00BF00BF70BD000C014010B500F069
:1012F000B7FC12480068124908601048001D0068D9
:10130000486008460068401C40B908464068401CD8
:1013100020B90CA000F0ACFF012010BD002405E0B6
:101320000748005D0F490855601CC4B2062CF7DB66
:101330000C490DA000F09CFF0020EEE70CFC00081B
:101340004C0000200A0D243E3A5F43616E206E6F10
:101350007420726573746F72652070617373776F38
:1013600072640000000000200A0D243E3A5F5265BE
:1013700073746F72652073797374656D2070617317
:1013800073776F72643A20257300000010B500F087
:1013900067FC16480068164908601448001D00687C
:1013A0004860124808300068886008460068401CA1
:1013B00060B908464068401C40B908468068401C37
:1013C00020B90CA000F054FF012010BD002405E05E
:1013D0000748005D10490855601CC4B20D2CF7DBAE
:1013E0000D490EA000F044FF0020EEE700FC0008CD
:1013F0004C0000200A0D243E3A5F43616E206E6F60
:101400007420726573746F72652070686F6E6520EA
:101410006E756D6265720000060000200A0D243EA4
:101420003A5F526573746F72652070686F6E6520E5
:101430006E756D6265723A202573000010B500F07C
:101440000FFC104800681049086008460068401CFE
:1014500020B90EA000F00CFF012010BD0A48007852
:1014600016490870084840781549087013480178F3
:1014700014A000F0FDFE124801781AA000F0F8FE5A
:101480000020EAE714FC00084C0000200A0D243E6E
:101490003A5F43616E206E6F7420726573746F7271
:1014A000652074656D706572617475726520616E1A
:1014B000642068756D696469747900001300002008
:1014C000140000200A0D243E3A5F526573746F7257
:1014D000652074656D70657261747572653A20255A
:1014E000750000000A0D243E3A5F526573746F72F6
:1014F000652068756D69646974792020203A20251B
:101500007500000070B50A240025FFF785F8FFF785
:1015100099F800224FF400413248FFF7CFFA6420D7
:1015200000F0BBFF0122D1032E48FFF7C7FA642069
:1015300000F0B3FF00224FF400412A48FFF7BEFA43
:1015400041F2883000F0A9FFFEF7E6FF00BF00BFC0
:10155000FEF7D0FF0546601EC4B20CB9002070BD76
:10156000002DF5D00A2400BF1FA0FEF783FF05461B
:10157000601EC4B20CB90020F1E7002DF4D01BA00E
:10158000FEF778FF642000F088FFFEF7DBFF18A06D
:10159000FEF770FF642000F080FF18A0FEF76AFFDE
:1015A000642000F07AFF18A0FEF764FF642000F0CA
:1015B00074FF1AA0FEF75EFF642000F06EFF19A012
:1015C000FEF758FF1AA0FEF755FF4FF4967000F093
:1015D00064FF1CA0FEF74EFF642000F05EFF0120B8
:1015E000BDE700000008014041545A004154450045
:1015F00041542B434C49503D3100000041542B4392
:101600004D47463D3100000041542B434E4D493D6E
:10161000322C322C302C302C300D000041542B4316
:101620005341530041542B434D47443D310000008A
:1016300041542B514D4744413D2244454C20414C9F
:101640004C220000415445300000000070B50646B1
:101650000D46642420A0FEF70DFF22A0FEF70AFF2E
:1016600023A0FFF74DF83046FFF74AF823A0FFF715
:1016700047F8642000F011FF08E04FF4FA7000F022
:101680000CFF601EC4B20CB9002070BD1CA11D4827
:1016900000F0FFFF0028F0DB2846FFF731F81A21A1
:1016A000194800F074FD642400BF4FF4FA7000F094
:1016B000F4FE601EC4B22CB114A1124800F0BAFFAF
:1016C000002801DB0020E0E712A10E4800F0B2FF85
:1016D0000028EADB0120D8E741542B434D47463D23
:1016E0003100000041542B434D47443D3100000080
:1016F00041542B434D47533D22000000220D000072
:101700003E000000C6000020004400404552524FF9
:10171000520000004F4B00002DE9FE43002500243D
:10172000B848FEF737FEB849B84800F083FF0028F4
:1017300005DAB749B54800F07DFF002857DBB5A1B1
:10174000B24800F077FF002809DB01210846FFF7C7
:10175000B3FDB2A1AB48FFF779FFBDE8FE83B4A1AA
:10176000AA4800F067FF002808DB00210120FFF7EE
:10177000A3FDB1A1A348FFF769FFEEE7B3A1A3481A
:1017800000F058FF002808DB01210220FFF794FD3C
:10179000B0A19C48FFF75AFFDFE7B3A19B4800F0D8
:1017A00049FF002808DB00210220FFF785FDB0A1DA
:1017B0009448FFF74BFFD0E7B2A1944800F069FFCF
:1017C000051E30DB002406E09048405DB049085516
:1017D000601CC4B26D1C8D48405D202801D0642C73
:1017E000F2DB052C04D0ABA18648FFF72FFF07E101
:1017F000002405E0A648005D83490855601CC4B27A
:10180000062CF7DB00208049487100F029FA7E4A57
:10181000A7A19F4800F03CFD9D497A48FFF716FFBD
:10182000FEF76AFDECE0A7A1784800F032FF051E44
:1018300032DB002400F014FA06E07448405D94495D
:101840000855601CC4B26D1C7048405D302805DB33
:101850006E48405D392801DC642CEEDB8C4800F0DA
:1018600047FF86B2002E12DDFF2E10DC98490E7065
:1018700000F0F6F99648027896A1854800F008FD38
:1018800083496048FFF7E2FEFEF736FDB8E097A116
:101890005C48FFF7DBFEB3E0A3A15C4800F0F9FE73
:1018A000051E32DB002400F0DBF906E05748405DFE
:1018B00077490855601CC4B26D1C5448405D3028FF
:1018C00005DB5248405D392801DC642CEEDB7048B2
:1018D00000F00EFF86B2002E12DD642E10DC95495A
:1018E0000E7000F0BDF99348027893A1684800F0AB
:1018F000CFFC67494348FFF7A9FEFEF7FDFC7FE0F8
:1019000091A14048FFF7A2FE7AE09DA13F4800F078
:10191000C0FE051E31DB002406E03C48405D5C490A
:101920000855601CC4B26D1C3848405D202801D0A9
:10193000642CF2DB0B2C04DD94A13248FFF786FE09
:101940005EE0002099490873C8728872002504E09F
:101950004F48405D954948556D1CA542F8DB00F0A5
:101960007FF9924A92A14A4800F092FC48492548E2
:10197000FFF76CFEFEF7C0FC42E095A1234800F0A3
:1019800088FE051E1BDB00F06BF90220FFF778FCD8
:1019900007460120FFF774FC80464D480078CDE9EA
:1019A000018700901748401E437D027D8B493848CF
:1019B00000F06EFC36491348FFF748FE20E088A18E
:1019C000124800F066FE051E1ADB13A10F4800F056
:1019D00060FE002807DB01208349087083A10948C5
:1019E000FFF734FE0CE013A1084800F052FE002877
:1019F00006DB00207C4908708AA10248FFF726FE1A
:101A000000BFAAE6B100002000000020C6000020B0
:101A100058280008544231404F4E00005468696510
:101A200074206269203120646120626174000000CA
:101A3000544231404F4646005468696574206269DB
:101A400020312064612074617400000054423240EF
:101A50004F4E00005468696574206269203220642A
:101A60006120626174000000544232404F464600DB
:101A70005468696574206269203220646120746151
:101A8000740000005345545041535340000000007F
:101A90004C00002050617373776F7264207068612E
:101AA0006920636F20352063687520736F00000024
:101AB00050617373776F7264206D6F69206C613A47
:101AC0002025730053455454454D504000000000FC
:101AD000130000204E6869657420646F206D6F6983
:101AE0003A20256420646F2043000000476961208C
:101AF000747269206E6869657420646F206B686F0A
:101B00006E672070687520686F702E204E6869655A
:101B10007420646F207068616920747520302064BF
:101B2000656E20323535000053455448554D4940C7
:101B30000000000014000020446F20616D206D6FD4
:101B4000693A20256425250047696120747269205F
:101B5000646F20616D206B686F6E67207068752000
:101B6000686F702E20446F20616D2070686169205D
:101B7000747520302064656E203130300000000024
:101B800053455450484F4E4540000000536F206469
:101B900069656E2074686F61692070686169206989
:101BA0007420686F6E20313220736F0006000020B1
:101BB000536F206469656E2074686F6169204164A9
:101BC0006D696E206D6F69206C613A20257300008D
:101BD0005245414440414C4C00000000602A00083E
:101BE0005245504F525440001500002042616E2073
:101BF0006461206261742063687563206E616E6742
:101C00002074686F6E672062616F206B6869206E58
:101C10006869657420646F207468617920646F69F5
:101C20000000000042616E206461207461742063D2
:101C3000687563206E616E672074686F6E672062DE
:101C4000616F206B6869206E6869657420646F201D
:101C50007468617920646F690000000070470000BB
:101C6000002004E00021034A1154411CC8B264283A
:101C7000F8DB70474C00002010B500F001F810BDF3
:101C80000CB50020019000903348006840F480308B
:101C90003149086000BF3048006800F4003000900F
:101CA0000198401C0190009818B90198B0F5A06FF8
:101CB000F1D12948006800F4003010B101200090F3
:101CC00001E0002000900098012843D123480068DB
:101CD00040F01000214908600846006820F0030029
:101CE00008600846006840F0020008601A48406832
:101CF000194948600846406848600846406840F412
:101D0000806048600846406820F47C1048600846BF
:101D1000406840F4E81048600846006840F0807071
:101D2000086000BF0C48006800F000700028F9D07F
:101D30000948406820F003000749486008464068A9
:101D400040F00200486000BF0348406800F00C000B
:101D50000828F9D10CBD000000100240002002400C
:101D60004FF0E021096921F004014FF0E0221161F8
:101D7000C21700EB5272C2F3C702074B1A70194622
:101D8000097801EB4102C2EBC1114FF6FF7202EA82
:101D9000C101024A11807047420000204400002027
:101DA00001460D4A12884A434FF0E0235A6100224F
:101DB0009A6101221A6100BF4FF0E022106900F021
:101DC00001021AB100F48032002AF5D000224FF04F
:101DD000E0231A619A6170474400002001460D4AD1
:101DE00012784A434FF0E0235A6100229A6101229F
:101DF0001A6100BF4FF0E022106900F001021AB131
:101E000000F48032002AF5D000224FF0E0231A615E
:101E10009A6170474200002010B51348006840F0F6
:101E200001001149086008464068104908400E4901
:101E30004860084600680E4908400B49086008469B
:101E4000006820F4802008600846406820F4FE0006
:101E500048604FF41F008860FFF70EFF4FF00060EE
:101E60000449086010BD0000001002400000FFF8A7
:101E7000FFFFF6FE08ED00E000B587B0012144F257
:101E80000400FFF7EBF84FF40070ADF818001820CD
:101E90008DF81B0003208DF81A0006A92448FEF7D0
:101EA00023FD4FF48060ADF8180004208DF81B006E
:101EB00003208DF81A0006A91D48FEF715FD4FF402
:101EC000E13002900C20ADF812000020ADF81000B7
:101ED000ADF80E00ADF80C00ADF8140002A91548DD
:101EE00000F0E4F84021134800F06EF8012240F2BF
:101EF0002551104800F0B4F840210E4800F064F875
:101F000001210C4800F069F84FF4A060FEF75CFF77
:101F100025208DF8040000208DF805008DF80600BE
:101F200001208DF8070001A8FEF716FF07B000BDDD
:101F3000000801400038014010B540F225511C480E
:101F400000F064F8012831D140F22551184800F022
:101F50003BF8174800F016F9164908700120164999
:101F6000087016480088C8280BDA1248007814490F
:101F7000124A1288885411480088401C0F49088072
:101F800008E000200D4908800A4800780C490B4AF7
:101F900012888854074801780A4800F0F8F800BF12
:101FA0004021084800F025F80028F9D010BD0000B5
:101FB0000044004041000020400000203E0000207E
:101FC000C60000200038014001F40072B2F5007F25
:101FD00000D100BFCA430280704721B1828942F418
:101FE0000052828104E082894DF6FF731A4082819B
:101FF000704702460020B1F5007F00D100BF138872
:102000000B400BB1012000E00020704770B5024684
:10201000002400230025002040F66A16B14200D1BA
:1020200000BFC1F3421501F01F03012606FA03F3B6
:10203000012D02D19689334006E0022D02D1168A85
:10204000334001E0968A33400C12012606FA04F46C
:102050001688344013B10CB1012000E0002070BD9F
:10206000F0B50346002400260025002040F66A173C
:10207000B94200D100BF1846C1F3421401F01F0657
:10208000012707FA06F5012C01D10C3004E0022CDF
:1020900001D1103000E014301AB107682F430760F7
:1020A00002E00768AF430760F0BD00002DE9F0478C
:1020B00086B005460E460024A24600BFA146002772
:1020C000B08900B100BF2F462C8A4CF6FF70044047
:1020D000F08804432C82AC894EF6F3100440B0889B
:1020E00031890843718908430443AC81AC8A4FF6B7
:1020F000FF400440B0890443AC8201A8FEF7BEFF54
:102100001F48874202D1DDF810A001E0DDF80CA0E5
:10211000A88900F4004040B10AEBCA0000EB0A10A5
:1021200031684900B0FBF1F807E00AEBCA0000EBA8
:102130000A1031688900B0FBF1F86420B8FBF0F0B8
:1021400004012009642101FB1089A88900F40040E2
:1021500040B1322000EBC900B0FBF1F000F0070005
:10216000044308E0322000EB09106421B0FBF1F0D9
:1021700000F00F0004432C8106B0BDE8F08700009A
:102180000038014001468888C0F308007047C1F359
:10219000080282807047000010B50120FFF770F838
:1021A00038B100210846FEF7DCFC1EA0FEF78EFDCC
:1021B00006E000210846FEF7D4FC1DA0FEF786FDD0
:1021C0000220FFF75DF838B100210920FEF7C9FCB5
:1021D0001AA0FEF77BFD06E000210920FEF7C1FCF6
:1021E00018A0FEF773FDFFF73BFD1848027D18A10C
:1021F0001A4800F04DF801210020FEF7B2FC174804
:10220000FEF764FDFFF72CFD1048427D14A1134832
:1022100000F03EF801210920FEF7A3FC0F48FEF76D
:1022200055FD10BD524C313A4F4E202000000000A9
:10223000524C313A4F46462000000000524C323A90
:102240004F4E2000524C323A4F464600B00000201C
:1022500054656D703A257520200000004C00002068
:1022600048756D693A2575202000000000BFFEE723
:102270000FB4054B10B503A9044A029800F02CF8DE
:1022800010BC5DF814FB0000B124000848000020D9
:102290000FB4084B10B504A902AA039800F01CF86B
:1022A000044602A9002000F0F3F8204610BC5DF8B7
:1022B00014FB00009124000802E008C8121F08C1A6
:1022C000002AFAD170477047002001E001C1121FB7
:1022D000002AFBD1704700002DE9FF4F8BB09A46D2
:1022E0000F460546002606E025280BD052460D99DC
:1022F00090476D1C761C28780028F5D10FB0304629
:10230000BDE8F08F0024A0460122604900E00443AC
:1023100015F8013F203B02FA03F00842F7D1287874
:102320002E2817D115F8010F44F004042A280ED0E6
:102330006FF02F022878A0F1300109290AD808EBA4
:10234000880102EB410100EB01086D1CF2E757F830
:10235000048B6D1C287869283ED006DC0028CDD07F
:1023600063280BD0642804D136E0732810D0752878
:102370004BD052460D999047761C85E017F8040B18
:102380008DF8000000208DF80100E946012003E0EF
:1023900057F8049B4FF0FF3061074FF0000401D461
:1023A0000AE0641C44450DDA8442FADB19F8041093
:1023B0000029F6D106E0641C8442FCDB19F8041005
:1023C0000029F8D1264404E019F8010B52460D9972
:1023D0009047641EF8D257E001CF4FF00A0B002857
:1023E00002DA40422D2102E0210504D52B218DF88F
:1023F0002410012103E0E10705D02021F7E70DF1CA
:10240000200908910CE00021F9E701CF4FF00A0BF9
:10241000F9E75946FDF78DFE01F1300209F8012D6B
:102420000028F6D1ADEB090000F1200B600701D4C4
:102430004FF00108D84502DDA8EB0B0000E00020BA
:102440008046002406E009A85246005D0D99904799
:10245000641C761C08988442F5DB04E03020524668
:102460000D999047761CB8F10001A8F10108F5DC40
:1024700005E019F8010B52460D999047761CBBF107
:102480000001ABF1010BF4DC6D1C34E709280100FD
:102490000A68531C0B601070704700BF4FF4FA526B
:1024A00000FB02F100BF0A00A1F10101FBD170475E
:1024B00070B504460D46E1B20548FFF768FE00BF5F
:1024C00040210348FFF795FD0028F9D0204670BD54
:1024D00000380140FFF7A0FC01210846FEF7BEFDD1
:1024E00001213048FEF78CFAFEF75AFB4820FFF72F
:1024F00037FCFEF7BDF9FFF7BFFCFDF781FFFEF7E4
:1025000085FC2948FFF7B4FE2848FFF7B1FE2848AC
:10251000FFF7AEFE27A0FEF7D9FB29A0FFF7A8FE24
:10252000FEF7F0FF40B1FEF7E7FA29A0FEF7CEFB79
:102530002AA0FFF79DFE02E02EA0FFF799FEFEF70E
:10254000D5FEFEF723FFFEF779FFFDF7E5FFFFF766
:1025500087FB26E02D48007801281BD14FF47A70C4
:10256000FFF79BFF2AA12B4800F064F8002807DB47
:10257000FFF7D2F8FDF7D0FF27A0FDF77BFF07E0BC
:102580002AA1244800F056F8002801DBFDF7C8FE18
:10259000FDF7C2FFFEF744FCFFF7FEFD6420FFF7E6
:1025A0007CFFD7E700023000A82800086028000858
:1025B000F0280008496E69742047534D2E2E2E00D6
:1025C0000A0D243E3A5F496E69742047534D00005E
:1025D000496E69742047534D204F4B000A0D243E2D
:1025E0003A5F496E69742047534D205375636365A4
:1025F000737300000A0D243E3A5F496E69742047E8
:10260000534D204572726F720000000040000020A0
:10261000434D5400C600002041542B514D474441C6
:102620003D2244454C20414C4C22000052494E472B
:10263000000000002DE9F04780460F464FF00009EA
:102640004046FDF76FFD81463846FDF76BFD0646B7
:10265000B1451BD3002412E0002507E0601918F8EB
:102660000000795D884200D002E06D1CB542F5D3D0
:1026700000BFB54202D12046BDE8F087641CA9EB3B
:102680000600A042E8D24FF0FF30F5E74FF0FF30F0
:10269000F2E72DE9F04780460F464FF0000940462B
:1026A000FDF740FD81463846FDF73CFD0446A14557
:1026B0001BD3002512E0002607E0A81918F8000037
:1026C000B95D884200D002E0761CA642F5D300BF77
:1026D000A64202D12819BDE8F0876D1CA9EB0400C1
:1026E000A842E8D24FF0FF30F5E74FF0FF30F2E7B5
:1026F0002DE9F04105460026002700242846FDF775
:1027000011FDC7B228782D2804D10B2F06DD00203B
:10271000BDE8F0810A2F01DD0020F9E728782D2897
:1027200019D1012412E0285D30280BDB285D3928FF
:1027300008DC285D30382855285D06EB860100EB63
:10274000410601E00020E3E7601CC4B2BC42EADBC2
:1027500076423046DCE7002412E0285D30280BDBAF
:10276000285D392808DC285D30382855285D06EBBF
:10277000860100EB410601E00020C9E7601CC4B2FD
:10278000BC42EADB3046C3E738B504460094002279
:102790004FF400712F48FEF791F99DF80000C2092F
:1027A00040212C48FEF78AF99DF80000C0F3801202
:1027B00020212848FEF782F99DF80000C0F340125E
:1027C00010212448FEF77AF99DF80000C0F30012AA
:1027D00008212048FEF772F9012251021D48FEF738
:1027E0006DF900224FF400711A48FEF767F90120D5
:1027F000FEF7ACF99DF80000C0F3C0024021154877
:10280000FEF75CF99DF80000C0F38002202111481A
:10281000FEF754F99DF80000C0F3400210210D4866
:10282000FEF74CF99DF8000000F00102082109486C
:10283000FEF744F9012251020648FEF73FF9002253
:102840004FF400710348FEF739F90120FEF77EF9D5
:1028500038BD0000000C0140696C6F766500000017
:102860000A0D2A2020202020202D2D2054454D50B7
:102870004552415455524520414E442048554D49FA
:1028800044495459204D4F4E49544F52494E4720C8
:1028900047534D2053595354454D202D2D20202072
:1028A0002020202A000000000A0D2A2A2A2A2A2A8B
:1028B0002A2A2A2A2A2A2A2A2A2A2A2A2A2A2A2A78
:1028C0002A2A2A2A2A2A2A2A2A2A2A2A2A2A2A2A68
:1028D0002A2A2A2A2A2A2A2A2A2A2A2A2A2A2A2A58
:1028E0002A2A2A2A2A2A2A2A2A2A2A2A00000000F0
:1028F0000A0D2D2D2D2D2D2D2D2D2D2D2D2D2D2D4B
:102900002D2D2D2D2D2D2D2D2D2D2D2D2D2D2D2DF7
:102910002D2D2D2D2D2D2D2D2D2D2D2D2D2D2D2DE7
:102920002D2D2D2D2D2D2D2D2D2D2D2D2D2D2D2DD7
:102930002D2D2D2A0000000043414E482042414FDA
:102940003A204E6869657420646F206869656E205E
:10295000746169206C612025752C20646F20616D85
:102960002025752C2063616F20686F6E206D756364
:102970002025752E2048652074686F6E672073656A
:102980002062617420646F6E6720636F206C616DDC
:10299000206D61742062656E2074726F6E67000036
:1029A00043414E482042414F3A204E6869657420A9
:1029B000646F206869656E20746169206C612025F0
:1029C000752C20646F20616D2025752C2063616F4C
:1029D00020686F6E206D75632025752E2048652058
:1029E00074686F6E672073652062617420322064A2
:1029F0006F6E6720636F206C616D206D61740000E5
:102A000043414E482042414F3A204E686965742048
:102A1000646F206869656E20746169206C6120258F
:102A2000752C20646F20616D2025752C20746861E1
:102A30007020686F6E206D75632025752E204865A7
:102A40002074686F6E672073652074617420322073
:102A5000646F6E6720636F206C616D206D61740020
:102A60004E6869657420646F3A2025752C20446F88
:102A700020616D3A2025752C204E686965742064AC
:102A80006F2062616F20646F6E673A2025752C207D
:102A900052656C617920313A2025752C2052656C85
:102AA000617920323A20257500000000CC2A000808
:102AB000000000204C000000B8220008182B00087D
:102AC0004C00002044050000C82200083132333495
:102AD000350030393338373838343332000000238A
:102AE000460100000000000000000000000000009F
:102AF00000000000000000000001020304010203C6
:102B0000040607080902040608000000000000008F
:082B10000000000000000000BD
:04000005080000ED02
:00000001FF
